:100000000A128A11182E00308A000408840A820716
:1000100000344C34593443344134203453344F3455
:100020004634543400344B34453450344434413431
:0600300044343A340034B0
:100C300083010A128A11AE2E02300A128A1150263E
:100C40000A128A1128300A128A1150260A128A11B1
:100C50000C300A128A1150260A128A110800F40078
:100C6000422E740884000A128A1103200A128A1183
:100C70000A128A117F260A128A110130F3007308C2
:100C8000F407422E740884000A128A1103200A1203
:100C90008A110038031D4D2E4E2E312E4F2E080086
:100CA000F2007208F03983120313880008118815C6
:100CB0002130F1007630F000F00B5C2EF10B5C2E51
:100CC00064008312031388117208F00003300310CC
:100CD000F00DFF3E031D672E0310700DF0398800E4
:100CE000081188152130F1007630F000F00B762ED7
:100CF000F10B762E64008312031388110800F200B2
:100D00007208F03983120313880008158815213002
:100D1000F1007630F000F00B8B2EF10B8B2E64007F
:100D20008312031388117208F00003300310F00DD2
:100D3000FF3E031D962E0310700DF0398800081534
:100D400088152130F1007630F000F00BA52EF10B64
:100D5000A52E640083120313881108008316031361
:100D60008801831203138801F03083160313870070
:100D70008312031387010A128A111C260A128A1190
:100D800080300A128A1150260A128A1101300A1282
:100D90008A112F260A128A11C0300A128A1150268F
:100DA0000A128A110B300A128A112F260A128A118E
:100DB000D92E0A128A11E3260A128A11D92ED92EA7
:100DC0000A128A1100280430831203138700071DBA
:100DD000EA2EEB2EFC2E071EEE2EEF2EFC2EC73039
:100DE0000A128A1150260A128A1131300A128A1107
:100DF0007F260A128A11FC2E83120313071D012F6E
:100E0000022F132F871E052F062F132FC7300A120C
:100E10008A1150260A128A1134300A128A117F264A
:100E20000A128A11132F83120313071D182F192F6B
:100E30002A2F071F1C2F1D2F2A2FC7300A128A1195
:100E400050260A128A1137300A128A117F260A1296
:100E50008A112A2F83120313071D2F2F302F412FA2
:100E6000871F332F342F412FC7300A128A11502683
:100E70000A128A112A300A128A117F260A128A114E
:100E8000412F0230831203138700871C482F492FFC
:100E90005A2F071E4C2F4D2F5A2FC7300A128A1176
:100EA00050260A128A1132300A128A117F260A123B
:100EB0008A115A2F83120313871C5F2F602F712F03
:100EC000871E632F642F712FC7300A128A11502694
:100ED0000A128A1135300A128A117F260A128A11E3
:100EE000712F83120313871C762F772F882F071FEC
:100EF0007A2F7B2F882FC7300A128A1150260A12A8
:100F00008A1138300A128A117F260A128A11882F14
:100F100083120313871C8D2F8E2F9F2F871F912FD6
:100F2000922F9F2FC7300A128A1150260A128A1157
:100F300030300A128A117F260A128A119F2F01303F
:100F4000831203138700071CA62FA72FB82F071E95
:100F5000AA2FAB2FB82FC7300A128A1150260A12B7
:100F60008A1133300A128A117F260A128A11B82F89
:100F700083120313071CBD2FBE2FCF2F871EC12F37
:100F8000C22FCF2FC7300A128A1150260A128A1197
:100F900036300A128A117F260A128A11CF2F831245
:100FA0000313071CD42FD52FE62F071FD82FD92FB7
:100FB000E62FC7300A128A1150260A128A113930D8
:100FC0000A128A117F260A128A11E62F831203134E
:100FD000071CEB2FEC2FE32E871FEF2FF02FE32EB4
:100FE000C7300A128A1150260A128A1123300A12B7
:100FF0008A117F260A128A11E32EE32EE32E0800BF
:02400E003A3F37
:00000001FF
